{
  "_format": "hh-sol-artifact-1",
  "contractName": "TokenFarm",
  "sourceName": "contracts/TokenFarm.sol",
  "abi": [
    {
      "inputs": [
        {
          "internalType": "address",
          "name": "_dappTokenAddress",
          "type": "address"
        }
      ],
      "stateMutability": "nonpayable",
      "type": "constructor"
    },
    {
      "anonymous": false,
      "inputs": [
        {
          "indexed": true,
          "internalType": "address",
          "name": "previousOwner",
          "type": "address"
        },
        {
          "indexed": true,
          "internalType": "address",
          "name": "newOwner",
          "type": "address"
        }
      ],
      "name": "OwnershipTransferred",
      "type": "event"
    },
    {
      "inputs": [
        {
          "internalType": "address",
          "name": "_token",
          "type": "address"
        }
      ],
      "name": "addAllowedTokens",
      "outputs": [],
      "stateMutability": "nonpayable",
      "type": "function"
    },
    {
      "inputs": [
        {
          "internalType": "uint256",
          "name": "",
          "type": "uint256"
        }
      ],
      "name": "allowedTokens",
      "outputs": [
        {
          "internalType": "address",
          "name": "",
          "type": "address"
        }
      ],
      "stateMutability": "view",
      "type": "function"
    },
    {
      "inputs": [],
      "name": "dappToken",
      "outputs": [
        {
          "internalType": "contract IERC20",
          "name": "",
          "type": "address"
        }
      ],
      "stateMutability": "view",
      "type": "function"
    },
    {
      "inputs": [
        {
          "internalType": "address",
          "name": "_token",
          "type": "address"
        }
      ],
      "name": "getTokenValue",
      "outputs": [
        {
          "internalType": "uint256",
          "name": "",
          "type": "uint256"
        },
        {
          "internalType": "uint256",
          "name": "",
          "type": "uint256"
        }
      ],
      "stateMutability": "view",
      "type": "function"
    },
    {
      "inputs": [
        {
          "internalType": "address",
          "name": "_user",
          "type": "address"
        },
        {
          "internalType": "address",
          "name": "_token",
          "type": "address"
        }
      ],
      "name": "getUserSingleTokenValue",
      "outputs": [
        {
          "internalType": "uint256",
          "name": "",
          "type": "uint256"
        }
      ],
      "stateMutability": "view",
      "type": "function"
    },
    {
      "inputs": [
        {
          "internalType": "address",
          "name": "_user",
          "type": "address"
        }
      ],
      "name": "getUserTotalValue",
      "outputs": [
        {
          "internalType": "uint256",
          "name": "",
          "type": "uint256"
        }
      ],
      "stateMutability": "view",
      "type": "function"
    },
    {
      "inputs": [],
      "name": "issueTokens",
      "outputs": [],
      "stateMutability": "nonpayable",
      "type": "function"
    },
    {
      "inputs": [],
      "name": "owner",
      "outputs": [
        {
          "internalType": "address",
          "name": "",
          "type": "address"
        }
      ],
      "stateMutability": "view",
      "type": "function"
    },
    {
      "inputs": [],
      "name": "renounceOwnership",
      "outputs": [],
      "stateMutability": "nonpayable",
      "type": "function"
    },
    {
      "inputs": [
        {
          "internalType": "address",
          "name": "_token",
          "type": "address"
        },
        {
          "internalType": "address",
          "name": "_priceFeed",
          "type": "address"
        }
      ],
      "name": "setPriceFeedContract",
      "outputs": [],
      "stateMutability": "nonpayable",
      "type": "function"
    },
    {
      "inputs": [
        {
          "internalType": "uint256",
          "name": "_amount",
          "type": "uint256"
        },
        {
          "internalType": "address",
          "name": "_token",
          "type": "address"
        }
      ],
      "name": "stakeTokens",
      "outputs": [],
      "stateMutability": "nonpayable",
      "type": "function"
    },
    {
      "inputs": [
        {
          "internalType": "uint256",
          "name": "",
          "type": "uint256"
        }
      ],
      "name": "stakers",
      "outputs": [
        {
          "internalType": "address",
          "name": "",
          "type": "address"
        }
      ],
      "stateMutability": "view",
      "type": "function"
    },
    {
      "inputs": [
        {
          "internalType": "address",
          "name": "",
          "type": "address"
        },
        {
          "internalType": "address",
          "name": "",
          "type": "address"
        }
      ],
      "name": "stakingBalance",
      "outputs": [
        {
          "internalType": "uint256",
          "name": "",
          "type": "uint256"
        }
      ],
      "stateMutability": "view",
      "type": "function"
    },
    {
      "inputs": [
        {
          "internalType": "address",
          "name": "_token",
          "type": "address"
        }
      ],
      "name": "tokenIsAllowed",
      "outputs": [
        {
          "internalType": "bool",
          "name": "",
          "type": "bool"
        }
      ],
      "stateMutability": "view",
      "type": "function"
    },
    {
      "inputs": [
        {
          "internalType": "address",
          "name": "",
          "type": "address"
        }
      ],
      "name": "tokenPriceFeedMapping",
      "outputs": [
        {
          "internalType": "address",
          "name": "",
          "type": "address"
        }
      ],
      "stateMutability": "view",
      "type": "function"
    },
    {
      "inputs": [
        {
          "internalType": "address",
          "name": "newOwner",
          "type": "address"
        }
      ],
      "name": "transferOwnership",
      "outputs": [],
      "stateMutability": "nonpayable",
      "type": "function"
    },
    {
      "inputs": [
        {
          "internalType": "address",
          "name": "",
          "type": "address"
        }
      ],
      "name": "uniqueTokensStaked",
      "outputs": [
        {
          "internalType": "uint256",
          "name": "",
          "type": "uint256"
        }
      ],
      "stateMutability": "view",
      "type": "function"
    },
    {
      "inputs": [
        {
          "internalType": "address",
          "name": "_token",
          "type": "address"
        }
      ],
      "name": "unstakeTokens",
      "outputs": [],
      "stateMutability": "nonpayable",
      "type": "function"
    }
  ],
  "bytecode": "0x60806040523480156200001157600080fd5b5060405162001fe138038062001fe18339818101604052810190620000379190620001d5565b620000576200004b6200009f60201b60201c565b620000a760201b60201c565b80600660006101000a81548173ffffffffffffffffffffffffffffffffffffffff021916908373ffffffffffffffffffffffffffffffffffffffff1602179055505062000207565b600033905090565b60008060009054906101000a900473ffffffffffffffffffffffffffffffffffffffff169050816000806101000a81548173ffffffffffffffffffffffffffffffffffffffff021916908373ffffffffffffffffffffffffffffffffffffffff1602179055508173ffffffffffffffffffffffffffffffffffffffff168173ffffffffffffffffffffffffffffffffffffffff167f8be0079c531659141344cd1fd0a4f28419497f9722a3daafe3b4186f6b6457e060405160405180910390a35050565b600080fd5b600073ffffffffffffffffffffffffffffffffffffffff82169050919050565b60006200019d8262000170565b9050919050565b620001af8162000190565b8114620001bb57600080fd5b50565b600081519050620001cf81620001a4565b92915050565b600060208284031215620001ee57620001ed6200016b565b5b6000620001fe84828501620001be565b91505092915050565b611dca80620002176000396000f3fe608060405234801561001057600080fd5b50600436106101165760003560e01c8063715018a6116100a2578063b83e023411610071578063b83e0234146102cb578063dd5b8467146102fb578063f1c5d6c21461032b578063f2fde38b1461035c578063fd5e6dd11461037857610116565b8063715018a614610257578063877dd39d146102615780638da5cb5b1461027d578063af3f5e221461029b57610116565b806329161a00116100e957806329161a00146101b35780632d1ad8b8146101e35780635e5f2e26146101ff5780635eb186f81461022f57806360ab58521461024d57610116565b80630bea440d1461011b578063171e44ea14610137578063276b11da1461015357806327927b3e14610183575b600080fd5b61013560048036038101906101309190611348565b6103a8565b005b610151600480360381019061014c9190611388565b610610565b005b61016d600480360381019061016891906113b5565b61067e565b60405161017a9190611404565b60405180910390f35b61019d60048036038101906101989190611388565b610789565b6040516101aa919061142e565b60405180910390f35b6101cd60048036038101906101c891906113b5565b6107bc565b6040516101da9190611404565b60405180910390f35b6101fd60048036038101906101f89190611388565b6107e1565b005b61021960048036038101906102149190611449565b610a0e565b604051610226919061142e565b60405180910390f35b610237610a4d565b60405161024491906114d5565b60405180910390f35b610255610a73565b005b61025f610ba3565b005b61027b600480360381019061027691906113b5565b610bb7565b005b610285610c41565b604051610292919061142e565b60405180910390f35b6102b560048036038101906102b09190611388565b610c6a565b6040516102c29190611404565b60405180910390f35b6102e560048036038101906102e09190611388565b610d75565b6040516102f29190611404565b60405180910390f35b61031560048036038101906103109190611388565b610d8d565b604051610322919061150b565b60405180910390f35b61034560048036038101906103409190611388565b610e3c565b604051610353929190611526565b60405180910390f35b61037660048036038101906103719190611388565b610fc2565b005b610392600480360381019061038d9190611449565b611046565b60405161039f919061142e565b60405180910390f35b600082116103eb576040517f08c379a00000000000000000000000000000000000000000000000000000000081526004016103e2906115ac565b60405180910390fd5b6103f481610d8d565b610433576040517f08c379a000000000000000000000000000000000000000000000000000000000815260040161042a90611618565b60405180910390fd5b8073ffffffffffffffffffffffffffffffffffffffff166323b872dd3330856040518463ffffffff1660e01b815260040161047093929190611638565b602060405180830381600087803b15801561048a57600080fd5b505af115801561049e573d6000803e3d6000fd5b505050506040513d601f19601f820116820180604052508101906104c2919061169b565b506104cd3382611085565b81600160008373ffffffffffffffffffffffffffffffffffffffff1673ffffffffffffffffffffffffffffffffffffffff16815260200190815260200160002060003373ffffffffffffffffffffffffffffffffffffffff1673ffffffffffffffffffffffffffffffffffffffff168152602001908152602001600020600082825461055991906116f7565b925050819055506001600260003373ffffffffffffffffffffffffffffffffffffffff1673ffffffffffffffffffffffffffffffffffffffff16815260200190815260200160002054141561060c576004339080600181540180825580915050600190039060005260206000200160009091909190916101000a81548173ffffffffffffffffffffffffffffffffffffffff021916908373ffffffffffffffffffffffffffffffffffffffff1602179055505b5050565b610618611165565b6005819080600181540180825580915050600190039060005260206000200160009091909190916101000a81548173ffffffffffffffffffffffffffffffffffffffff021916908373ffffffffffffffffffffffffffffffffffffffff16021790555050565b600080600260008573ffffffffffffffffffffffffffffffffffffffff1673ffffffffffffffffffffffffffffffffffffffff16815260200190815260200160002054116106cf5760009050610783565b6000806106db84610e3c565b9150915080600a6106ec9190611880565b82600160008773ffffffffffffffffffffffffffffffffffffffff1673ffffffffffffffffffffffffffffffffffffffff16815260200190815260200160002060008873ffffffffffffffffffffffffffffffffffffffff1673ffffffffffffffffffffffffffffffffffffffff1681526020019081526020016000205461077491906118cb565b61077e9190611954565b925050505b92915050565b60036020528060005260406000206000915054906101000a900473ffffffffffffffffffffffffffffffffffffffff1681565b6001602052816000526040600020602052806000526040600020600091509150505481565b6000600160008373ffffffffffffffffffffffffffffffffffffffff1673ffffffffffffffffffffffffffffffffffffffff16815260200190815260200160002060003373ffffffffffffffffffffffffffffffffffffffff1673ffffffffffffffffffffffffffffffffffffffff168152602001908152602001600020549050600081116108a5576040517f08c379a000000000000000000000000000000000000000000000000000000000815260040161089c906119d1565b60405180910390fd5b8173ffffffffffffffffffffffffffffffffffffffff1663a9059cbb33836040518363ffffffff1660e01b81526004016108e09291906119f1565b602060405180830381600087803b1580156108fa57600080fd5b505af115801561090e573d6000803e3d6000fd5b505050506040513d601f19601f82011682018060405250810190610932919061169b565b506000600160008473ffffffffffffffffffffffffffffffffffffffff1673ffffffffffffffffffffffffffffffffffffffff16815260200190815260200160002060003373ffffffffffffffffffffffffffffffffffffffff1673ffffffffffffffffffffffffffffffffffffffff16815260200190815260200160002081905550600260003373ffffffffffffffffffffffffffffffffffffffff1673ffffffffffffffffffffffffffffffffffffffff1681526020019081526020016000206000815480929190610a0590611a1a565b91905055505050565b60058181548110610a1e57600080fd5b906000526020600020016000915054906101000a900473ffffffffffffffffffffffffffffffffffffffff1681565b600660009054906101000a900473ffffffffffffffffffffffffffffffffffffffff1681565b610a7b611165565b60005b600480549050811015610ba057600060048281548110610aa157610aa0611a44565b5b9060005260206000200160009054906101000a900473ffffffffffffffffffffffffffffffffffffffff1690506000610ad982610c6a565b9050600660009054906101000a900473ffffffffffffffffffffffffffffffffffffffff1673ffffffffffffffffffffffffffffffffffffffff1663a9059cbb83836040518363ffffffff1660e01b8152600401610b389291906119f1565b602060405180830381600087803b158015610b5257600080fd5b505af1158015610b66573d6000803e3d6000fd5b505050506040513d601f19601f82011682018060405250810190610b8a919061169b565b5050508080610b9890611a73565b915050610a7e565b50565b610bab611165565b610bb560006111e3565b565b610bbf611165565b80600360008473ffffffffffffffffffffffffffffffffffffffff1673ffffffffffffffffffffffffffffffffffffffff16815260200190815260200160002060006101000a81548173ffffffffffffffffffffffffffffffffffffffff021916908373ffffffffffffffffffffffffffffffffffffffff1602179055505050565b60008060009054906101000a900473ffffffffffffffffffffffffffffffffffffffff16905090565b600080600090506000600260008573ffffffffffffffffffffffffffffffffffffffff1673ffffffffffffffffffffffffffffffffffffffff1681526020019081526020016000205411610cf3576040517f08c379a0000000000000000000000000000000000000000000000000000000008152600401610cea90611b08565b60405180910390fd5b60005b600580549050811015610d6b57610d4b8460058381548110610d1b57610d1a611a44565b5b9060005260206000200160009054906101000a900473ffffffffffffffffffffffffffffffffffffffff1661067e565b82610d5691906116f7565b91508080610d6390611a73565b915050610cf6565b5080915050919050565b60026020528060005260406000206000915090505481565b600080600090505b600580549050811015610e315760058181548110610db657610db5611a44565b5b9060005260206000200160009054906101000a900473ffffffffffffffffffffffffffffffffffffffff1673ffffffffffffffffffffffffffffffffffffffff168373ffffffffffffffffffffffffffffffffffffffff161415610e1e576001915050610e37565b8080610e2990611a73565b915050610d95565b50600090505b919050565b6000806000600360008573ffffffffffffffffffffffffffffffffffffffff1673ffffffffffffffffffffffffffffffffffffffff16815260200190815260200160002060009054906101000a900473ffffffffffffffffffffffffffffffffffffffff169050600081905060008173ffffffffffffffffffffffffffffffffffffffff1663feaf968c6040518163ffffffff1660e01b815260040160a06040518083038186803b158015610ef057600080fd5b505afa158015610f04573d6000803e3d6000fd5b505050506040513d601f19601f82011682018060405250810190610f289190611bb5565b50505091505060008273ffffffffffffffffffffffffffffffffffffffff1663313ce5676040518163ffffffff1660e01b815260040160206040518083038186803b158015610f7657600080fd5b505afa158015610f8a573d6000803e3d6000fd5b505050506040513d601f19601f82011682018060405250810190610fae9190611c69565b60ff16905081819550955050505050915091565b610fca611165565b600073ffffffffffffffffffffffffffffffffffffffff168173ffffffffffffffffffffffffffffffffffffffff16141561103a576040517f08c379a000000000000000000000000000000000000000000000000000000000815260040161103190611d08565b60405180910390fd5b611043816111e3565b50565b6004818154811061105657600080fd5b906000526020600020016000915054906101000a900473ffffffffffffffffffffffffffffffffffffffff1681565b6000600160008373ffffffffffffffffffffffffffffffffffffffff1673ffffffffffffffffffffffffffffffffffffffff16815260200190815260200160002060008473ffffffffffffffffffffffffffffffffffffffff1673ffffffffffffffffffffffffffffffffffffffff1681526020019081526020016000205411611161576001600260008473ffffffffffffffffffffffffffffffffffffffff1673ffffffffffffffffffffffffffffffffffffffff168152602001908152602001600020600082825461115991906116f7565b925050819055505b5050565b61116d6112a7565b73ffffffffffffffffffffffffffffffffffffffff1661118b610c41565b73ffffffffffffffffffffffffffffffffffffffff16146111e1576040517f08c379a00000000000000000000000000000000000000000000000000000000081526004016111d890611d74565b60405180910390fd5b565b60008060009054906101000a900473ffffffffffffffffffffffffffffffffffffffff169050816000806101000a81548173ffffffffffffffffffffffffffffffffffffffff021916908373ffffffffffffffffffffffffffffffffffffffff1602179055508173ffffffffffffffffffffffffffffffffffffffff168173ffffffffffffffffffffffffffffffffffffffff167f8be0079c531659141344cd1fd0a4f28419497f9722a3daafe3b4186f6b6457e060405160405180910390a35050565b600033905090565b600080fd5b6000819050919050565b6112c7816112b4565b81146112d257600080fd5b50565b6000813590506112e4816112be565b92915050565b600073ffffffffffffffffffffffffffffffffffffffff82169050919050565b6000611315826112ea565b9050919050565b6113258161130a565b811461133057600080fd5b50565b6000813590506113428161131c565b92915050565b6000806040838503121561135f5761135e6112af565b5b600061136d858286016112d5565b925050602061137e85828601611333565b9150509250929050565b60006020828403121561139e5761139d6112af565b5b60006113ac84828501611333565b91505092915050565b600080604083850312156113cc576113cb6112af565b5b60006113da85828601611333565b92505060206113eb85828601611333565b9150509250929050565b6113fe816112b4565b82525050565b600060208201905061141960008301846113f5565b92915050565b6114288161130a565b82525050565b6000602082019050611443600083018461141f565b92915050565b60006020828403121561145f5761145e6112af565b5b600061146d848285016112d5565b91505092915050565b6000819050919050565b600061149b611496611491846112ea565b611476565b6112ea565b9050919050565b60006114ad82611480565b9050919050565b60006114bf826114a2565b9050919050565b6114cf816114b4565b82525050565b60006020820190506114ea60008301846114c6565b92915050565b60008115159050919050565b611505816114f0565b82525050565b600060208201905061152060008301846114fc565b92915050565b600060408201905061153b60008301856113f5565b61154860208301846113f5565b9392505050565b600082825260208201905092915050565b7f416d6f756e74206d757374206265206d6f7265207468616e207a65726f210000600082015250565b6000611596601e8361154f565b91506115a182611560565b602082019050919050565b600060208201905081810360008301526115c581611589565b9050919050565b7f546f6b656e2069732063757272656e746c79206e6f7420616c6c6f7765642100600082015250565b6000611602601f8361154f565b915061160d826115cc565b602082019050919050565b60006020820190508181036000830152611631816115f5565b9050919050565b600060608201905061164d600083018661141f565b61165a602083018561141f565b61166760408301846113f5565b949350505050565b611678816114f0565b811461168357600080fd5b50565b6000815190506116958161166f565b92915050565b6000602082840312156116b1576116b06112af565b5b60006116bf84828501611686565b91505092915050565b7f4e487b7100000000000000000000000000000000000000000000000000000000600052601160045260246000fd5b6000611702826112b4565b915061170d836112b4565b9250827fffffffffffffffffffffffffffffffffffffffffffffffffffffffffffffffff03821115611742576117416116c8565b5b828201905092915050565b60008160011c9050919050565b6000808291508390505b60018511156117a4578086048111156117805761177f6116c8565b5b600185161561178f5780820291505b808102905061179d8561174d565b9450611764565b94509492505050565b6000826117bd5760019050611879565b816117cb5760009050611879565b81600181146117e157600281146117eb5761181a565b6001915050611879565b60ff8411156117fd576117fc6116c8565b5b8360020a915084821115611814576118136116c8565b5b50611879565b5060208310610133831016604e8410600b841016171561184f5782820a90508381111561184a576118496116c8565b5b611879565b61185c848484600161175a565b92509050818404811115611873576118726116c8565b5b81810290505b9392505050565b600061188b826112b4565b9150611896836112b4565b92506118c37fffffffffffffffffffffffffffffffffffffffffffffffffffffffffffffffff84846117ad565b905092915050565b60006118d6826112b4565b91506118e1836112b4565b9250817fffffffffffffffffffffffffffffffffffffffffffffffffffffffffffffffff048311821515161561191a576119196116c8565b5b828202905092915050565b7f4e487b7100000000000000000000000000000000000000000000000000000000600052601260045260246000fd5b600061195f826112b4565b915061196a836112b4565b92508261197a57611979611925565b5b828204905092915050565b7f5374616b696e672062616c616e63652063616e6e6f7420626520300000000000600082015250565b60006119bb601b8361154f565b91506119c682611985565b602082019050919050565b600060208201905081810360008301526119ea816119ae565b9050919050565b6000604082019050611a06600083018561141f565b611a1360208301846113f5565b9392505050565b6000611a25826112b4565b91506000821415611a3957611a386116c8565b5b600182039050919050565b7f4e487b7100000000000000000000000000000000000000000000000000000000600052603260045260246000fd5b6000611a7e826112b4565b91507fffffffffffffffffffffffffffffffffffffffffffffffffffffffffffffffff821415611ab157611ab06116c8565b5b600182019050919050565b7f4e6f20746f6b656e73207374616b656421000000000000000000000000000000600082015250565b6000611af260118361154f565b9150611afd82611abc565b602082019050919050565b60006020820190508181036000830152611b2181611ae5565b9050919050565b600069ffffffffffffffffffff82169050919050565b611b4781611b28565b8114611b5257600080fd5b50565b600081519050611b6481611b3e565b92915050565b6000819050919050565b611b7d81611b6a565b8114611b8857600080fd5b50565b600081519050611b9a81611b74565b92915050565b600081519050611baf816112be565b92915050565b600080600080600060a08688031215611bd157611bd06112af565b5b6000611bdf88828901611b55565b9550506020611bf088828901611b8b565b9450506040611c0188828901611ba0565b9350506060611c1288828901611ba0565b9250506080611c2388828901611b55565b9150509295509295909350565b600060ff82169050919050565b611c4681611c30565b8114611c5157600080fd5b50565b600081519050611c6381611c3d565b92915050565b600060208284031215611c7f57611c7e6112af565b5b6000611c8d84828501611c54565b91505092915050565b7f4f776e61626c653a206e6577206f776e657220697320746865207a65726f206160008201527f6464726573730000000000000000000000000000000000000000000000000000602082015250565b6000611cf260268361154f565b9150611cfd82611c96565b604082019050919050565b60006020820190508181036000830152611d2181611ce5565b9050919050565b7f4f776e61626c653a2063616c6c6572206973206e6f7420746865206f776e6572600082015250565b6000611d5e60208361154f565b9150611d6982611d28565b602082019050919050565b60006020820190508181036000830152611d8d81611d51565b905091905056fea2646970667358221220a71920cf8e718410936cc2f8021a8988aa7ec17fb39da70b7a48c1df4d82243f64736f6c63430008080033",
  "linkReferences": {},
  "deployedLinkReferences": {}
}